{
  "_format": "hh-sol-artifact-1",
  "contractName": "SylvanToken",
  "sourceName": "contracts/SylvanToken.sol",
  "abi": [
    {
      "inputs": [
        {
          "internalType": "address",
          "name": "_feeWallet",
          "type": "address"
        },
        {
          "internalType": "address",
          "name": "_donationWallet",
          "type": "address"
        },
        {
          "internalType": "address[]",
          "name": "_initialExemptAccounts",
          "type": "address[]"
        }
      ],
      "stateMutability": "nonpayable",
      "type": "constructor"
    },
    {
      "inputs": [
        {
          "internalType": "address",
          "name": "admin",
          "type": "address"
        }
      ],
      "name": "AdminWalletAlreadyConfigured",
      "type": "error"
    },
    {
      "inputs": [
        {
          "internalType": "address",
          "name": "admin",
          "type": "address"
        }
      ],
      "name": "AdminWalletNotConfigured",
      "type": "error"
    },
    {
      "inputs": [
        {
          "internalType": "address",
          "name": "beneficiary",
          "type": "address"
        }
      ],
      "name": "CliffPeriodActive",
      "type": "error"
    },
    {
      "inputs": [
        {
          "internalType": "address",
          "name": "admin",
          "type": "address"
        }
      ],
      "name": "ImmediateReleaseAlreadyProcessed",
      "type": "error"
    },
    {
      "inputs": [
        {
          "internalType": "address",
          "name": "account",
          "type": "address"
        },
        {
          "internalType": "uint256",
          "name": "requested",
          "type": "uint256"
        },
        {
          "internalType": "uint256",
          "name": "available",
          "type": "uint256"
        }
      ],
      "name": "InsufficientUnlockedBalance",
      "type": "error"
    },
    {
      "inputs": [
        {
          "internalType": "uint256",
          "name": "amount",
          "type": "uint256"
        }
      ],
      "name": "InvalidAdminAllocation",
      "type": "error"
    },
    {
      "inputs": [],
      "name": "InvalidAmount",
      "type": "error"
    },
    {
      "inputs": [],
      "name": "InvalidExemptionConfiguration",
      "type": "error"
    },
    {
      "inputs": [],
      "name": "InvalidVestingParameters",
      "type": "error"
    },
    {
      "inputs": [
        {
          "internalType": "address",
          "name": "beneficiary",
          "type": "address"
        }
      ],
      "name": "NoTokensToRelease",
      "type": "error"
    },
    {
      "inputs": [
        {
          "internalType": "address",
          "name": "beneficiary",
          "type": "address"
        }
      ],
      "name": "NoVestingSchedule",
      "type": "error"
    },
    {
      "inputs": [],
      "name": "UnauthorizedExemptionChange",
      "type": "error"
    },
    {
      "inputs": [
        {
          "internalType": "address",
          "name": "beneficiary",
          "type": "address"
        }
      ],
      "name": "VestingAlreadyExists",
      "type": "error"
    },
    {
      "inputs": [
        {
          "internalType": "address",
          "name": "beneficiary",
          "type": "address"
        }
      ],
      "name": "VestingNotStarted",
      "type": "error"
    },
    {
      "inputs": [
        {
          "internalType": "address",
          "name": "wallet",
          "type": "address"
        }
      ],
      "name": "WalletAlreadyExempt",
      "type": "error"
    },
    {
      "inputs": [
        {
          "internalType": "address",
          "name": "wallet",
          "type": "address"
        }
      ],
      "name": "WalletNotExempt",
      "type": "error"
    },
    {
      "inputs": [],
      "name": "ZeroAddress",
      "type": "error"
    },
    {
      "anonymous": false,
      "inputs": [
        {
          "indexed": true,
          "internalType": "address",
          "name": "admin",
          "type": "address"
        },
        {
          "indexed": false,
          "internalType": "uint256",
          "name": "totalAllocation",
          "type": "uint256"
        },
        {
          "indexed": false,
          "internalType": "uint256",
          "name": "immediateRelease",
          "type": "uint256"
        },
        {
          "indexed": false,
          "internalType": "uint256",
          "name": "lockedAmount",
          "type": "uint256"
        }
      ],
      "name": "AdminWalletConfigured",
      "type": "event"
    },
    {
      "anonymous": false,
      "inputs": [
        {
          "indexed": true,
          "internalType": "address",
          "name": "owner",
          "type": "address"
        },
        {
          "indexed": true,
          "internalType": "address",
          "name": "spender",
          "type": "address"
        },
        {
          "indexed": false,
          "internalType": "uint256",
          "name": "value",
          "type": "uint256"
        }
      ],
      "name": "Approval",
      "type": "event"
    },
    {
      "anonymous": false,
      "inputs": [
        {
          "indexed": false,
          "internalType": "address[]",
          "name": "wallets",
          "type": "address[]"
        },
        {
          "indexed": false,
          "internalType": "bool",
          "name": "exempt",
          "type": "bool"
        }
      ],
      "name": "BatchExemptionUpdate",
      "type": "event"
    },
    {
      "anonymous": false,
      "inputs": [
        {
          "indexed": false,
          "internalType": "uint256",
          "name": "walletCount",
          "type": "uint256"
        }
      ],
      "name": "ExemptionConfigLoaded",
      "type": "event"
    },
    {
      "anonymous": false,
      "inputs": [
        {
          "indexed": false,
          "internalType": "uint256",
          "name": "feeAmount",
          "type": "uint256"
        },
        {
          "indexed": false,
          "internalType": "uint256",
          "name": "donationAmount",
          "type": "uint256"
        },
        {
          "indexed": false,
          "internalType": "uint256",
          "name": "burnAmount",
          "type": "uint256"
        }
      ],
      "name": "FeeDistributed",
      "type": "event"
    },
    {
      "anonymous": false,
      "inputs": [
        {
          "indexed": true,
          "internalType": "address",
          "name": "wallet",
          "type": "address"
        },
        {
          "indexed": false,
          "internalType": "bool",
          "name": "exempt",
          "type": "bool"
        }
      ],
      "name": "FeeExemptionChanged",
      "type": "event"
    },
    {
      "anonymous": false,
      "inputs": [
        {
          "indexed": true,
          "internalType": "address",
          "name": "admin",
          "type": "address"
        },
        {
          "indexed": false,
          "internalType": "uint256",
          "name": "amount",
          "type": "uint256"
        }
      ],
      "name": "InitialReleaseProcessed",
      "type": "event"
    },
    {
      "anonymous": false,
      "inputs": [
        {
          "indexed": true,
          "internalType": "address",
          "name": "admin",
          "type": "address"
        },
        {
          "indexed": false,
          "internalType": "uint256",
          "name": "releasedAmount",
          "type": "uint256"
        },
        {
          "indexed": false,
          "internalType": "uint256",
          "name": "burnedAmount",
          "type": "uint256"
        },
        {
          "indexed": false,
          "internalType": "uint256",
          "name": "totalReleased",
          "type": "uint256"
        }
      ],
      "name": "MonthlyReleaseProcessed",
      "type": "event"
    },
    {
      "anonymous": false,
      "inputs": [
        {
          "indexed": true,
          "internalType": "address",
          "name": "previousOwner",
          "type": "address"
        },
        {
          "indexed": true,
          "internalType": "address",
          "name": "newOwner",
          "type": "address"
        }
      ],
      "name": "OwnershipTransferred",
      "type": "event"
    },
    {
      "anonymous": false,
      "inputs": [
        {
          "indexed": true,
          "internalType": "address",
          "name": "beneficiary",
          "type": "address"
        },
        {
          "indexed": false,
          "internalType": "uint256",
          "name": "burnAmount",
          "type": "uint256"
        },
        {
          "indexed": false,
          "internalType": "uint256",
          "name": "totalBurned",
          "type": "uint256"
        }
      ],
      "name": "ProportionalBurn",
      "type": "event"
    },
    {
      "anonymous": false,
      "inputs": [
        {
          "indexed": true,
          "internalType": "address",
          "name": "beneficiary",
          "type": "address"
        },
        {
          "indexed": false,
          "internalType": "uint256",
          "name": "releasedAmount",
          "type": "uint256"
        },
        {
          "indexed": false,
          "internalType": "uint256",
          "name": "burnedAmount",
          "type": "uint256"
        },
        {
          "indexed": false,
          "internalType": "uint256",
          "name": "totalReleased",
          "type": "uint256"
        }
      ],
      "name": "TokensReleased",
      "type": "event"
    },
    {
      "anonymous": false,
      "inputs": [
        {
          "indexed": true,
          "internalType": "address",
          "name": "from",
          "type": "address"
        },
        {
          "indexed": true,
          "internalType": "address",
          "name": "to",
          "type": "address"
        },
        {
          "indexed": false,
          "internalType": "uint256",
          "name": "value",
          "type": "uint256"
        }
      ],
      "name": "Transfer",
      "type": "event"
    },
    {
      "anonymous": false,
      "inputs": [
        {
          "indexed": true,
          "internalType": "address",
          "name": "from",
          "type": "address"
        },
        {
          "indexed": true,
          "internalType": "address",
          "name": "to",
          "type": "address"
        },
        {
          "indexed": false,
          "internalType": "uint256",
          "name": "amount",
          "type": "uint256"
        },
        {
          "indexed": false,
          "internalType": "uint256",
          "name": "feeAmount",
          "type": "uint256"
        }
      ],
      "name": "UniversalFeeApplied",
      "type": "event"
    },
    {
      "anonymous": false,
      "inputs": [
        {
          "indexed": true,
          "internalType": "address",
          "name": "beneficiary",
          "type": "address"
        },
        {
          "indexed": false,
          "internalType": "uint256",
          "name": "amount",
          "type": "uint256"
        },
        {
          "indexed": false,
          "internalType": "uint256",
          "name": "cliffDuration",
          "type": "uint256"
        },
        {
          "indexed": false,
          "internalType": "uint256",
          "name": "vestingDuration",
          "type": "uint256"
        },
        {
          "indexed": false,
          "internalType": "bool",
          "name": "isAdmin",
          "type": "bool"
        }
      ],
      "name": "VestingScheduleCreated",
      "type": "event"
    },
    {
      "anonymous": false,
      "inputs": [
        {
          "indexed": true,
          "internalType": "address",
          "name": "beneficiary",
          "type": "address"
        },
        {
          "indexed": false,
          "internalType": "uint256",
          "name": "unreleased",
          "type": "uint256"
        }
      ],
      "name": "VestingScheduleRevoked",
      "type": "event"
    },
    {
      "inputs": [],
      "name": "ADMIN_IMMEDIATE_RELEASE",
      "outputs": [
        {
          "internalType": "uint256",
          "name": "",
          "type": "uint256"
        }
      ],
      "stateMutability": "view",
      "type": "function"
    },
    {
      "inputs": [],
      "name": "ADMIN_LOCK_PERCENTAGE",
      "outputs": [
        {
          "internalType": "uint256",
          "name": "",
          "type": "uint256"
        }
      ],
      "stateMutability": "view",
      "type": "function"
    },
    {
      "inputs": [],
      "name": "ADMIN_MONTHLY_RELEASE",
      "outputs": [
        {
          "internalType": "uint256",
          "name": "",
          "type": "uint256"
        }
      ],
      "stateMutability": "view",
      "type": "function"
    },
    {
      "inputs": [],
      "name": "BASIS_POINTS",
      "outputs": [
        {
          "internalType": "uint256",
          "name": "",
          "type": "uint256"
        }
      ],
      "stateMutability": "view",
      "type": "function"
    },
    {
      "inputs": [],
      "name": "DEAD_WALLET",
      "outputs": [
        {
          "internalType": "address",
          "name": "",
          "type": "address"
        }
      ],
      "stateMutability": "view",
      "type": "function"
    },
    {
      "inputs": [],
      "name": "FEE_DENOMINATOR",
      "outputs": [
        {
          "internalType": "uint256",
          "name": "",
          "type": "uint256"
        }
      ],
      "stateMutability": "view",
      "type": "function"
    },
    {
      "inputs": [],
      "name": "FEE_DISTRIBUTION_BURN",
      "outputs": [
        {
          "internalType": "uint256",
          "name": "",
          "type": "uint256"
        }
      ],
      "stateMutability": "view",
      "type": "function"
    },
    {
      "inputs": [],
      "name": "FEE_DISTRIBUTION_DONATION",
      "outputs": [
        {
          "internalType": "uint256",
          "name": "",
          "type": "uint256"
        }
      ],
      "stateMutability": "view",
      "type": "function"
    },
    {
      "inputs": [],
      "name": "FEE_DISTRIBUTION_FEE",
      "outputs": [
        {
          "internalType": "uint256",
          "name": "",
          "type": "uint256"
        }
      ],
      "stateMutability": "view",
      "type": "function"
    },
    {
      "inputs": [],
      "name": "LOCKED_MONTHLY_RELEASE",
      "outputs": [
        {
          "internalType": "uint256",
          "name": "",
          "type": "uint256"
        }
      ],
      "stateMutability": "view",
      "type": "function"
    },
    {
      "inputs": [],
      "name": "PROPORTIONAL_BURN",
      "outputs": [
        {
          "internalType": "uint256",
          "name": "",
          "type": "uint256"
        }
      ],
      "stateMutability": "view",
      "type": "function"
    },
    {
      "inputs": [],
      "name": "SECONDS_PER_DAY",
      "outputs": [
        {
          "internalType": "uint256",
          "name": "",
          "type": "uint256"
        }
      ],
      "stateMutability": "view",
      "type": "function"
    },
    {
      "inputs": [],
      "name": "SECONDS_PER_MONTH",
      "outputs": [
        {
          "internalType": "uint256",
          "name": "",
          "type": "uint256"
        }
      ],
      "stateMutability": "view",
      "type": "function"
    },
    {
      "inputs": [],
      "name": "TOTAL_SUPPLY",
      "outputs": [
        {
          "internalType": "uint256",
          "name": "",
          "type": "uint256"
        }
      ],
      "stateMutability": "view",
      "type": "function"
    },
    {
      "inputs": [],
      "name": "UNIVERSAL_FEE_RATE",
      "outputs": [
        {
          "internalType": "uint256",
          "name": "",
          "type": "uint256"
        }
      ],
      "stateMutability": "view",
      "type": "function"
    },
    {
      "inputs": [
        {
          "internalType": "address",
          "name": "wallet",
          "type": "address"
        }
      ],
      "name": "addExemptWallet",
      "outputs": [],
      "stateMutability": "nonpayable",
      "type": "function"
    },
    {
      "inputs": [
        {
          "internalType": "address[]",
          "name": "wallets",
          "type": "address[]"
        }
      ],
      "name": "addExemptWalletsBatch",
      "outputs": [],
      "stateMutability": "nonpayable",
      "type": "function"
    },
    {
      "inputs": [
        {
          "internalType": "address",
          "name": "owner",
          "type": "address"
        },
        {
          "internalType": "address",
          "name": "spender",
          "type": "address"
        }
      ],
      "name": "allowance",
      "outputs": [
        {
          "internalType": "uint256",
          "name": "",
          "type": "uint256"
        }
      ],
      "stateMutability": "view",
      "type": "function"
    },
    {
      "inputs": [
        {
          "internalType": "address",
          "name": "spender",
          "type": "address"
        },
        {
          "internalType": "uint256",
          "name": "amount",
          "type": "uint256"
        }
      ],
      "name": "approve",
      "outputs": [
        {
          "internalType": "bool",
          "name": "",
          "type": "bool"
        }
      ],
      "stateMutability": "nonpayable",
      "type": "function"
    },
    {
      "inputs": [
        {
          "internalType": "address",
          "name": "account",
          "type": "address"
        }
      ],
      "name": "balanceOf",
      "outputs": [
        {
          "internalType": "uint256",
          "name": "",
          "type": "uint256"
        }
      ],
      "stateMutability": "view",
      "type": "function"
    },
    {
      "inputs": [
        {
          "internalType": "address",
          "name": "admin",
          "type": "address"
        }
      ],
      "name": "calculateAvailableRelease",
      "outputs": [
        {
          "internalType": "uint256",
          "name": "availableAmount",
          "type": "uint256"
        },
        {
          "internalType": "uint256",
          "name": "burnAmount",
          "type": "uint256"
        }
      ],
      "stateMutability": "view",
      "type": "function"
    },
    {
      "inputs": [
        {
          "internalType": "address",
          "name": "lockedWallet",
          "type": "address"
        }
      ],
      "name": "calculateProportionalBurn",
      "outputs": [
        {
          "internalType": "uint256",
          "name": "burnAmount",
          "type": "uint256"
        },
        {
          "internalType": "uint256",
          "name": "netReleaseAmount",
          "type": "uint256"
        }
      ],
      "stateMutability": "view",
      "type": "function"
    },
    {
      "inputs": [
        {
          "internalType": "address",
          "name": "beneficiary",
          "type": "address"
        }
      ],
      "name": "calculateReleasableAmount",
      "outputs": [
        {
          "internalType": "uint256",
          "name": "releasableAmount",
          "type": "uint256"
        },
        {
          "internalType": "uint256",
          "name": "burnAmount",
          "type": "uint256"
        }
      ],
      "stateMutability": "view",
      "type": "function"
    },
    {
      "inputs": [
        {
          "internalType": "address",
          "name": "admin",
          "type": "address"
        },
        {
          "internalType": "uint256",
          "name": "allocation",
          "type": "uint256"
        }
      ],
      "name": "configureAdminWallet",
      "outputs": [],
      "stateMutability": "nonpayable",
      "type": "function"
    },
    {
      "inputs": [
        {
          "internalType": "address",
          "name": "lockedWallet",
          "type": "address"
        },
        {
          "internalType": "uint256",
          "name": "amount",
          "type": "uint256"
        },
        {
          "internalType": "uint256",
          "name": "cliffDays",
          "type": "uint256"
        }
      ],
      "name": "createLockedWalletVesting",
      "outputs": [],
      "stateMutability": "nonpayable",
      "type": "function"
    },
    {
      "inputs": [
        {
          "internalType": "address",
          "name": "beneficiary",
          "type": "address"
        },
        {
          "internalType": "uint256",
          "name": "amount",
          "type": "uint256"
        },
        {
          "internalType": "uint256",
          "name": "cliffDays",
          "type": "uint256"
        },
        {
          "internalType": "uint256",
          "name": "vestingMonths",
          "type": "uint256"
        },
        {
          "internalType": "uint256",
          "name": "releasePercentage",
          "type": "uint256"
        },
        {
          "internalType": "uint256",
          "name": "burnPercentage",
          "type": "uint256"
        },
        {
          "internalType": "bool",
          "name": "isAdmin",
          "type": "bool"
        }
      ],
      "name": "createVestingSchedule",
      "outputs": [],
      "stateMutability": "nonpayable",
      "type": "function"
    },
    {
      "inputs": [],
      "name": "decimals",
      "outputs": [
        {
          "internalType": "uint8",
          "name": "",
          "type": "uint8"
        }
      ],
      "stateMutability": "view",
      "type": "function"
    },
    {
      "inputs": [
        {
          "internalType": "address",
          "name": "spender",
          "type": "address"
        },
        {
          "internalType": "uint256",
          "name": "subtractedValue",
          "type": "uint256"
        }
      ],
      "name": "decreaseAllowance",
      "outputs": [
        {
          "internalType": "bool",
          "name": "",
          "type": "bool"
        }
      ],
      "stateMutability": "nonpayable",
      "type": "function"
    },
    {
      "inputs": [],
      "name": "donationWallet",
      "outputs": [
        {
          "internalType": "address",
          "name": "",
          "type": "address"
        }
      ],
      "stateMutability": "view",
      "type": "function"
    },
    {
      "inputs": [],
      "name": "enableTrading",
      "outputs": [],
      "stateMutability": "nonpayable",
      "type": "function"
    },
    {
      "inputs": [],
      "name": "feeWallet",
      "outputs": [
        {
          "internalType": "address",
          "name": "",
          "type": "address"
        }
      ],
      "stateMutability": "view",
      "type": "function"
    },
    {
      "inputs": [
        {
          "internalType": "address",
          "name": "admin",
          "type": "address"
        }
      ],
      "name": "getAdminConfig",
      "outputs": [
        {
          "components": [
            {
              "internalType": "uint256",
              "name": "totalAllocation",
              "type": "uint256"
            },
            {
              "internalType": "uint256",
              "name": "immediateRelease",
              "type": "uint256"
            },
            {
              "internalType": "uint256",
              "name": "lockedAmount",
              "type": "uint256"
            },
            {
              "internalType": "uint256",
              "name": "monthlyRelease",
              "type": "uint256"
            },
            {
              "internalType": "uint256",
              "name": "releasedAmount",
              "type": "uint256"
            },
            {
              "internalType": "uint256",
              "name": "burnedAmount",
              "type": "uint256"
            },
            {
              "internalType": "bool",
              "name": "isConfigured",
              "type": "bool"
            },
            {
              "internalType": "bool",
              "name": "immediateReleased",
              "type": "bool"
            }
          ],
          "internalType": "struct IAdminWalletHandler.AdminWalletConfig",
          "name": "",
          "type": "tuple"
        }
      ],
      "stateMutability": "view",
      "type": "function"
    },
    {
      "inputs": [
        {
          "internalType": "address",
          "name": "admin",
          "type": "address"
        }
      ],
      "name": "getAdminReleaseStatus",
      "outputs": [
        {
          "internalType": "uint256",
          "name": "totalAllocation",
          "type": "uint256"
        },
        {
          "internalType": "uint256",
          "name": "immediateReleased",
          "type": "uint256"
        },
        {
          "internalType": "uint256",
          "name": "monthlyReleased",
          "type": "uint256"
        },
        {
          "internalType": "uint256",
          "name": "totalBurned",
          "type": "uint256"
        },
        {
          "internalType": "uint256",
          "name": "remainingLocked",
          "type": "uint256"
        },
        {
          "internalType": "bool",
          "name": "immediateProcessed",
          "type": "bool"
        }
      ],
      "stateMutability": "view",
      "type": "function"
    },
    {
      "inputs": [],
      "name": "getConfiguredAdmins",
      "outputs": [
        {
          "internalType": "address[]",
          "name": "",
          "type": "address[]"
        }
      ],
      "stateMutability": "view",
      "type": "function"
    },
    {
      "inputs": [],
      "name": "getExemptWalletCount",
      "outputs": [
        {
          "internalType": "uint256",
          "name": "",
          "type": "uint256"
        }
      ],
      "stateMutability": "view",
      "type": "function"
    },
    {
      "inputs": [],
      "name": "getExemptWallets",
      "outputs": [
        {
          "internalType": "address[]",
          "name": "",
          "type": "address[]"
        }
      ],
      "stateMutability": "view",
      "type": "function"
    },
    {
      "inputs": [],
      "name": "getFeeStats",
      "outputs": [
        {
          "internalType": "uint256",
          "name": "_totalFeesCollected",
          "type": "uint256"
        },
        {
          "internalType": "uint256",
          "name": "_totalTokensBurned",
          "type": "uint256"
        },
        {
          "internalType": "uint256",
          "name": "_totalDonations",
          "type": "uint256"
        }
      ],
      "stateMutability": "view",
      "type": "function"
    },
    {
      "inputs": [
        {
          "internalType": "address",
          "name": "lockedWallet",
          "type": "address"
        }
      ],
      "name": "getLockedWalletInfo",
      "outputs": [
        {
          "internalType": "uint256",
          "name": "totalAmount",
          "type": "uint256"
        },
        {
          "internalType": "uint256",
          "name": "releasedAmount",
          "type": "uint256"
        },
        {
          "internalType": "uint256",
          "name": "burnedAmount",
          "type": "uint256"
        },
        {
          "internalType": "uint256",
          "name": "remainingAmount",
          "type": "uint256"
        },
        {
          "internalType": "uint256",
          "name": "nextReleaseTime",
          "type": "uint256"
        },
        {
          "internalType": "uint256",
          "name": "monthsElapsed",
          "type": "uint256"
        },
        {
          "internalType": "uint256",
          "name": "monthsRemaining",
          "type": "uint256"
        },
        {
          "internalType": "bool",
          "name": "canRelease",
          "type": "bool"
        }
      ],
      "stateMutability": "view",
      "type": "function"
    },
    {
      "inputs": [],
      "name": "getTotalAdminAllocations",
      "outputs": [
        {
          "internalType": "uint256",
          "name": "",
          "type": "uint256"
        }
      ],
      "stateMutability": "view",
      "type": "function"
    },
    {
      "inputs": [],
      "name": "getTotalBurnedAmount",
      "outputs": [
        {
          "internalType": "uint256",
          "name": "",
          "type": "uint256"
        }
      ],
      "stateMutability": "view",
      "type": "function"
    },
    {
      "inputs": [],
      "name": "getTotalReleasedAmount",
      "outputs": [
        {
          "internalType": "uint256",
          "name": "",
          "type": "uint256"
        }
      ],
      "stateMutability": "view",
      "type": "function"
    },
    {
      "inputs": [],
      "name": "getTotalVestedAmount",
      "outputs": [
        {
          "internalType": "uint256",
          "name": "",
          "type": "uint256"
        }
      ],
      "stateMutability": "view",
      "type": "function"
    },
    {
      "inputs": [
        {
          "internalType": "address",
          "name": "beneficiary",
          "type": "address"
        }
      ],
      "name": "getVestingInfo",
      "outputs": [
        {
          "components": [
            {
              "internalType": "uint256",
              "name": "totalAmount",
              "type": "uint256"
            },
            {
              "internalType": "uint256",
              "name": "releasedAmount",
              "type": "uint256"
            },
            {
              "internalType": "uint256",
              "name": "burnedAmount",
              "type": "uint256"
            },
            {
              "internalType": "uint256",
              "name": "startTime",
              "type": "uint256"
            },
            {
              "internalType": "uint256",
              "name": "cliffDuration",
              "type": "uint256"
            },
            {
              "internalType": "uint256",
              "name": "vestingDuration",
              "type": "uint256"
            },
            {
              "internalType": "uint256",
              "name": "releasePercentage",
              "type": "uint256"
            },
            {
              "internalType": "uint256",
              "name": "burnPercentage",
              "type": "uint256"
            },
            {
              "internalType": "bool",
              "name": "isAdmin",
              "type": "bool"
            },
            {
              "internalType": "bool",
              "name": "isActive",
              "type": "bool"
            }
          ],
          "internalType": "struct IVestingManager.VestingSchedule",
          "name": "",
          "type": "tuple"
        }
      ],
      "stateMutability": "view",
      "type": "function"
    },
    {
      "inputs": [],
      "name": "getVestingStats",
      "outputs": [
        {
          "internalType": "uint256",
          "name": "_totalVested",
          "type": "uint256"
        },
        {
          "internalType": "uint256",
          "name": "_totalReleased",
          "type": "uint256"
        },
        {
          "internalType": "uint256",
          "name": "_totalBurned",
          "type": "uint256"
        },
        {
          "internalType": "uint256",
          "name": "_activeSchedules",
          "type": "uint256"
        }
      ],
      "stateMutability": "view",
      "type": "function"
    },
    {
      "inputs": [
        {
          "internalType": "address",
          "name": "beneficiary",
          "type": "address"
        }
      ],
      "name": "hasVestingSchedule",
      "outputs": [
        {
          "internalType": "bool",
          "name": "",
          "type": "bool"
        }
      ],
      "stateMutability": "view",
      "type": "function"
    },
    {
      "inputs": [
        {
          "internalType": "address",
          "name": "spender",
          "type": "address"
        },
        {
          "internalType": "uint256",
          "name": "addedValue",
          "type": "uint256"
        }
      ],
      "name": "increaseAllowance",
      "outputs": [
        {
          "internalType": "bool",
          "name": "",
          "type": "bool"
        }
      ],
      "stateMutability": "nonpayable",
      "type": "function"
    },
    {
      "inputs": [
        {
          "internalType": "address",
          "name": "pair",
          "type": "address"
        }
      ],
      "name": "isAMMPair",
      "outputs": [
        {
          "internalType": "bool",
          "name": "",
          "type": "bool"
        }
      ],
      "stateMutability": "view",
      "type": "function"
    },
    {
      "inputs": [
        {
          "internalType": "address",
          "name": "admin",
          "type": "address"
        }
      ],
      "name": "isAdminConfigured",
      "outputs": [
        {
          "internalType": "bool",
          "name": "",
          "type": "bool"
        }
      ],
      "stateMutability": "view",
      "type": "function"
    },
    {
      "inputs": [],
      "name": "isContractPaused",
      "outputs": [
        {
          "internalType": "bool",
          "name": "",
          "type": "bool"
        }
      ],
      "stateMutability": "view",
      "type": "function"
    },
    {
      "inputs": [
        {
          "internalType": "address",
          "name": "wallet",
          "type": "address"
        }
      ],
      "name": "isExempt",
      "outputs": [
        {
          "internalType": "bool",
          "name": "",
          "type": "bool"
        }
      ],
      "stateMutability": "view",
      "type": "function"
    },
    {
      "inputs": [],
      "name": "isTradingEnabled",
      "outputs": [
        {
          "internalType": "bool",
          "name": "",
          "type": "bool"
        }
      ],
      "stateMutability": "view",
      "type": "function"
    },
    {
      "inputs": [
        {
          "internalType": "address[]",
          "name": "configWallets",
          "type": "address[]"
        },
        {
          "internalType": "bool[]",
          "name": "exemptStatuses",
          "type": "bool[]"
        }
      ],
      "name": "loadExemptionsFromConfig",
      "outputs": [],
      "stateMutability": "nonpayable",
      "type": "function"
    },
    {
      "inputs": [],
      "name": "loadExemptionsFromConfig",
      "outputs": [],
      "stateMutability": "nonpayable",
      "type": "function"
    },
    {
      "inputs": [],
      "name": "name",
      "outputs": [
        {
          "internalType": "string",
          "name": "",
          "type": "string"
        }
      ],
      "stateMutability": "view",
      "type": "function"
    },
    {
      "inputs": [],
      "name": "owner",
      "outputs": [
        {
          "internalType": "address",
          "name": "",
          "type": "address"
        }
      ],
      "stateMutability": "view",
      "type": "function"
    },
    {
      "inputs": [],
      "name": "pauseContract",
      "outputs": [],
      "stateMutability": "nonpayable",
      "type": "function"
    },
    {
      "inputs": [
        {
          "internalType": "address",
          "name": "admin",
          "type": "address"
        }
      ],
      "name": "processInitialRelease",
      "outputs": [
        {
          "internalType": "uint256",
          "name": "releasedAmount",
          "type": "uint256"
        }
      ],
      "stateMutability": "nonpayable",
      "type": "function"
    },
    {
      "inputs": [
        {
          "internalType": "address",
          "name": "lockedWallet",
          "type": "address"
        }
      ],
      "name": "processLockedWalletRelease",
      "outputs": [
        {
          "internalType": "uint256",
          "name": "releasedAmount",
          "type": "uint256"
        },
        {
          "internalType": "uint256",
          "name": "burnedAmount",
          "type": "uint256"
        }
      ],
      "stateMutability": "nonpayable",
      "type": "function"
    },
    {
      "inputs": [
        {
          "internalType": "address",
          "name": "admin",
          "type": "address"
        }
      ],
      "name": "processMonthlyRelease",
      "outputs": [
        {
          "internalType": "uint256",
          "name": "releasedAmount",
          "type": "uint256"
        },
        {
          "internalType": "uint256",
          "name": "burnedAmount",
          "type": "uint256"
        }
      ],
      "stateMutability": "nonpayable",
      "type": "function"
    },
    {
      "inputs": [
        {
          "internalType": "address",
          "name": "beneficiary",
          "type": "address"
        }
      ],
      "name": "releaseVestedTokens",
      "outputs": [
        {
          "internalType": "uint256",
          "name": "releasedAmount",
          "type": "uint256"
        },
        {
          "internalType": "uint256",
          "name": "burnedAmount",
          "type": "uint256"
        }
      ],
      "stateMutability": "nonpayable",
      "type": "function"
    },
    {
      "inputs": [
        {
          "internalType": "address",
          "name": "wallet",
          "type": "address"
        }
      ],
      "name": "removeExemptWallet",
      "outputs": [],
      "stateMutability": "nonpayable",
      "type": "function"
    },
    {
      "inputs": [
        {
          "internalType": "address[]",
          "name": "wallets",
          "type": "address[]"
        }
      ],
      "name": "removeExemptWalletsBatch",
      "outputs": [],
      "stateMutability": "nonpayable",
      "type": "function"
    },
    {
      "inputs": [],
      "name": "renounceOwnership",
      "outputs": [],
      "stateMutability": "nonpayable",
      "type": "function"
    },
    {
      "inputs": [
        {
          "internalType": "address",
          "name": "pair",
          "type": "address"
        },
        {
          "internalType": "bool",
          "name": "isAMM",
          "type": "bool"
        }
      ],
      "name": "setAMMPair",
      "outputs": [],
      "stateMutability": "nonpayable",
      "type": "function"
    },
    {
      "inputs": [],
      "name": "symbol",
      "outputs": [
        {
          "internalType": "string",
          "name": "",
          "type": "string"
        }
      ],
      "stateMutability": "view",
      "type": "function"
    },
    {
      "inputs": [],
      "name": "totalFeesCollected",
      "outputs": [
        {
          "internalType": "uint256",
          "name": "",
          "type": "uint256"
        }
      ],
      "stateMutability": "view",
      "type": "function"
    },
    {
      "inputs": [],
      "name": "totalSupply",
      "outputs": [
        {
          "internalType": "uint256",
          "name": "",
          "type": "uint256"
        }
      ],
      "stateMutability": "view",
      "type": "function"
    },
    {
      "inputs": [],
      "name": "totalTokensBurned",
      "outputs": [
        {
          "internalType": "uint256",
          "name": "",
          "type": "uint256"
        }
      ],
      "stateMutability": "view",
      "type": "function"
    },
    {
      "inputs": [
        {
          "internalType": "address",
          "name": "to",
          "type": "address"
        },
        {
          "internalType": "uint256",
          "name": "amount",
          "type": "uint256"
        }
      ],
      "name": "transfer",
      "outputs": [
        {
          "internalType": "bool",
          "name": "",
          "type": "bool"
        }
      ],
      "stateMutability": "nonpayable",
      "type": "function"
    },
    {
      "inputs": [
        {
          "internalType": "address",
          "name": "from",
          "type": "address"
        },
        {
          "internalType": "address",
          "name": "to",
          "type": "address"
        },
        {
          "internalType": "uint256",
          "name": "amount",
          "type": "uint256"
        }
      ],
      "name": "transferFrom",
      "outputs": [
        {
          "internalType": "bool",
          "name": "",
          "type": "bool"
        }
      ],
      "stateMutability": "nonpayable",
      "type": "function"
    },
    {
      "inputs": [
        {
          "internalType": "address",
          "name": "newOwner",
          "type": "address"
        }
      ],
      "name": "transferOwnership",
      "outputs": [],
      "stateMutability": "nonpayable",
      "type": "function"
    },
    {
      "inputs": [],
      "name": "unpauseContract",
      "outputs": [],
      "stateMutability": "nonpayable",
      "type": "function"
    }
  ],
  "bytecode": "0x608060405234801562000010575f80fd5b50604051620049a5380380620049a58339810160408190526200003391620006ad565b6040518060400160405280600c81526020016b29bcb63b30b7102a37b5b2b760a11b8152506040518060400160405280600381526020016214d65360ea1b815250816003908162000085919062000801565b50600462000094828262000801565b505050620000b1620000ab620001eb60201b60201c565b620001ef565b60016006556001600160a01b0383161580620000d457506001600160a01b038216155b15620000f35760405163d92e233d60e01b815260040160405180910390fd5b601c80546001600160a01b038086166001600160a01b031992831617909255601d80549285169290911691909117905573__$e3956d16c7e23c9805324bbec2e9ec7c24$__6332447bd360078585620001546005546001600160a01b031690565b30876040518763ffffffff1660e01b815260040162000179969594939291906200093d565b5f6040518083038186803b15801562000190575f80fd5b505af4158015620001a3573d5f803e3d5ffd5b50505050620001b8816200024060201b60201c565b620001e2620001cf6005546001600160a01b031690565b6b033b2e3c9fd0803ce8000000620004ae565b50505062000a55565b3390565b600580546001600160a01b038381166001600160a01b0319831681179093556040519116919082907f8be0079c531659141344cd1fd0a4f28419497f9722a3daafe3b4186f6b6457e0905f90a35050565b305f9081526011602081905260408220805460ff1916600190811790915591620002726005546001600160a01b031690565b6001600160a01b03908116825260208083019390935260409182015f908120805495151560ff19968716179055601c54821681526011909352818320805485166001908117909155601d54909116835290822080548416821790557f97847ee99463795296047093514439c3127772df3715e628aa85601cf854171680549093168117909255601280549283018155908190525f805160206200498583398151915290910180546001600160a01b031916301790556200033a6005546001600160a01b031690565b8154600181810184555f9384526020842090910180546001600160a01b039384166001600160a01b031991821617909155601c546012805480850182558187525f80516020620049858339815191529081018054851693871693909317909255601d5481548086018355830180548516919096161790945583549283019093559101805490911661dead17905560056013555b8151811015620004aa575f828281518110620003ed57620003ed620009a0565b602002602001015190505f6001600160a01b0316816001600160a01b0316141580156200043257506001600160a01b0381165f9081526011602052604090205460ff16155b15620004a0576001600160a01b0381165f818152601160205260408120805460ff1916600190811790915560128054918201815582525f80516020620049858339815191520180546001600160a01b03191690921790915560138054916200049a83620009c8565b91905055505b50600101620003cd565b5050565b6001600160a01b038216620004e05760405162461bcd60e51b8152600401620004d79062000a16565b60405180910390fd5b8060025f828254620004f3919062000a28565b90915550506001600160a01b0382165f81815260208190526040808220805485019055517fddf252ad1be2c89b69c2b068fc378daa952ba7f163c4a11628f55a4df523b3ef906200054690859062000a45565b60405180910390a3620004aa5f83835b505050565b5f6001600160a01b0382165b92915050565b62000578816200055b565b811462000583575f80fd5b50565b805162000567816200056d565b634e487b7160e01b5f52604160045260245ffd5b601f19601f83011681016001600160401b0381118282101715620005cf57620005cf62000593565b6040525050565b5f620005e160405190565b9050620005ef8282620005a7565b919050565b5f6001600160401b038211156200060f576200060f62000593565b5060209081020190565b5f6200062f6200062984620005f4565b620005d6565b838152905060208082019084028301858111156200064f576200064f5f80fd5b835b81811015620006755762000666878262000586565b83526020928301920162000651565b5050509392505050565b5f82601f8301126200069357620006935f80fd5b8151620006a584826020860162000619565b949350505050565b5f805f60608486031215620006c457620006c45f80fd5b620006d0858562000586565b9250620006e1856020860162000586565b60408501519092506001600160401b038111156200070157620007015f80fd5b6200070f868287016200067f565b9150509250925092565b634e487b7160e01b5f52602260045260245ffd5b6002810460018216806200074257607f821691505b60208210810362000757576200075762000719565b50919050565b5f620005676200076a8381565b90565b62000778836200075d565b81545f1960089490940293841b1916921b91909117905550565b5f620005568184846200076d565b81811015620004aa57620007b55f8262000792565b600101620007a0565b601f82111562000556575f818152602090206020601f85010481016020851015620007e65750805b620007fa6020601f860104830182620007a0565b5050505050565b81516001600160401b038111156200081d576200081d62000593565b6200082982546200072d565b62000836828285620007be565b506020601f8211600181146200086c575f8315620008545750848201515b5f19600885021c1981166002850217855550620007fa565b5f84815260208120601f198516915b828110156200089d57878501518255602094850194600190920191016200087b565b5084821015620008ba57838701515f19601f87166008021c191681555b50505050600202600101905550565b620008d4816200055b565b82525050565b620008e68282620008c9565b5060200190565b60200190565b5f620008fd825190565b80845260209384019383015f5b8281101562000933578151620009218782620008da565b9650506020820191506001016200090a565b5093949350505050565b86815260c08101620009536020830188620008c9565b620009626040830187620008c9565b620009716060830186620008c9565b620009806080830185620008c9565b81810360a0830152620009948184620008f3565b98975050505050505050565b634e487b7160e01b5f52603260045260245ffd5b634e487b7160e01b5f52601160045260245ffd5b5f60018201620009dc57620009dc620009b4565b5060010190565b601f8152602081017f45524332303a206d696e7420746f20746865207a65726f20616464726573730081529050620008ed565b602080825281016200056781620009e3565b80820180821115620005675762000567620009b4565b80620008d4565b6020810162000567828462000a3e565b613f228062000a635f395ff3fe608060405234801561000f575f80fd5b5060043610610417575f3560e01c806392d0390f11610221578063d1536fc91161012a578063e72e6b89116100b4578063f2fde38b11610084578063f2fde38b146108e3578063f4ab2928146108f6578063f7769ace14610901578063f926a5a314610914578063fb897ce41461091c575f80fd5b8063e72e6b8914610886578063e7b94df41461088e578063f25f4b56146108a1578063f28ab2be146108b4575f80fd5b8063d8de26b9116100fa578063d8de26b914610828578063d96d08041461083b578063dd62ed3e1461084e578063e1f1c4a71461081f578063e678c8bd14610861575f80fd5b8063d1536fc9146107f0578063d157e30114610803578063d45753201461080c578063d73792a91461081f575f80fd5b8063ad5dff73116101ab578063b7f7bf0d1161017b578063b7f7bf0d146107b1578063bb68134c146107ba578063c4a18555146107c2578063caab5d88146107d5578063ce699a41146107dd575f80fd5b8063ad5dff7314610720578063b0249cc61461074b578063b33712c514610776578063b4a388931461077e575f80fd5b806395d89b41116101f157806395d89b41146106d6578063a01c3483146106de578063a457c2d7146106e7578063a9059cbb146106fa578063a944e8431461070d575f80fd5b806392d0390f146106805780639359d000146106a0578063949aadb3146106ce57806394ef5d5814610591575f80fd5b806349d91b3e11610323578063715018a6116102ad5780637c360d871161027d5780637c360d871461057757806382b17be01461062f5780638a8c523c1461064b5780638da5cb5b14610653578063902d55a51461066d575f80fd5b8063715018a6146105e957806372d669a7146105f157806374f0314f146106125780637b47414c1461061c575f80fd5b8063647b7971116102f3578063647b79711461059157806365e149f61461059a57806369a733a1146105a35780636fe44996146105b857806370a08231146105c1575f80fd5b806349d91b3e1461056e57806352191cbc14610577578063577a32651461058057806360c6d8ae14610588575f80fd5b80632c68d9a0116103a4578063395093511161037457806339509351146105065780633f59044e14610519578063439766ce1461054057806343c43de3146105485780634495e8271461055b575f80fd5b80632c68d9a0146104c95780632d99d32e146104dc5780632f17d767146104ef578063313ce567146104f7575f80fd5b80630b752fbc116103ea5780630b752fbc146104875780630d79aabd1461048f57806310786deb146104a457806318160ddd146104ae57806323b872dd146104b6575f80fd5b80630625df571461041b578063064a59d01461044457806306fdde031461045f578063095ea7b314610474575b5f80fd5b61042e6104293660046131c5565b61093c565b60405161043b91906131ea565b60405180910390f35b601d54600160a01b900460ff165b60405161043b9190613200565b610467610a62565b60405161043b9190613261565b610452610482366004613283565b610af2565b60195461042e565b6104a261049d366004613307565b610b0b565b005b61042e6228207281565b60025461042e565b6104526104c436600461334c565b610c3e565b6104a26104d7366004613283565b610c78565b6104a26104ea3660046133a5565b61101e565b61042e611076565b601260405161043b91906133db565b610452610514366004613283565b6110d8565b61052c6105273660046131c5565b6110f9565b60405161043b9897969594939291906133e9565b6104a2611294565b6104a26105563660046131c5565b6112ce565b6104a2610569366004613460565b61146a565b61042e61232881565b61042e6103e881565b60175461042e565b61042e601a5481565b61042e6109c481565b61042e61012c81565b6105ab611677565b60405161043b9190613550565b61042e6101f481565b61042e6105cf3660046131c5565b6001600160a01b03165f9081526020819052604090205490565b6104a261178d565b6106046105ff3660046131c5565b6117a0565b60405161043b929190613561565b61042e6201518081565b6104a261062a36600461357c565b6119e0565b60175460185460195460165460405161043b94939291906135f0565b6104a2611d05565b6005546001600160a01b03165b60405161043b919061362e565b61042e6b033b2e3c9fd0803ce800000081565b61069361068e3660046131c5565b611d4c565b60405161043b91906136cd565b6104526106ae3660046131c5565b6001600160a01b03165f9081526015602052604090206006015460ff1690565b6105ab611e0d565b610467611e6c565b61066061dead81565b6104526106f5366004613283565b611e7b565b610452610708366004613283565b611ec2565b61060461071b3660046131c5565b611ef1565b61045261072e3660046131c5565b6001600160a01b03165f9081526011602052604090205460ff1690565b6104526107593660046131c5565b6001600160a01b03165f908152601e602052604090205460ff1690565b6104a2611f05565b61045261078c3660046131c5565b6001600160a01b03165f90815260146020526040902060080154610100900460ff1690565b61042e61138881565b60135461042e565b6106046107d03660046131c5565b611f3b565b60185461042e565b6106046107eb3660046131c5565b611f62565b6106046107fe3660046131c5565b612191565b61042e601b5481565b6104a261081a3660046131c5565b612204565b61042e61271081565b6104a26108363660046136dc565b61230c565b6106046108493660046131c5565b612518565b61042e61085c36600461370a565b612523565b61087461086f3660046131c5565b61254d565b60405161043b96959493929190613737565b6104a2612609565b601d54610660906001600160a01b031681565b601c54610660906001600160a01b031681565b601a54601b54601d546001600160a01b03165f9081526020819052604090205460405161043b93929190613791565b6104a26108f13660046131c5565b61264c565b601f5460ff16610452565b6104a261090f366004613307565b612686565b61042e606481565b61092f61092a3660046131c5565b61284a565b60405161043b919061387c565b5f610945612932565b6001600160a01b0382165f908152601560205260409020600681015460ff1661098c5782604051630ec2858d60e11b8152600401610983919061362e565b60405180910390fd5b6006810154610100900460ff16156109b957826040516373475b2760e01b8152600401610983919061362e565b600181015460068201805461ff00191661010017905560048201805491935083915f906109e790849061389f565b9091555050600554610a03906001600160a01b0316848461295c565b8160185f828254610a14919061389f565b92505081905550826001600160a01b03167ff7364e252b64ebfaee8545f88adad443e5571e7101716bcf911cda6c43d3e97683604051610a5491906131ea565b60405180910390a250919050565b606060038054610a71906138c6565b80601f0160208091040260200160405190810160405280929190818152602001828054610a9d906138c6565b8015610ae85780601f10610abf57610100808354040283529160200191610ae8565b820191905f5260205f20905b815481529060010190602001808311610acb57829003601f168201915b5050505050905090565b5f33610aff818585612b59565b60019150505b92915050565b610b13612932565b5f5b81811015610bfd575f838383818110610b3057610b306138ec565b9050602002016020810190610b4591906131c5565b90506001600160a01b03811615801590610b7757506001600160a01b0381165f9081526011602052604090205460ff16155b15610bf4576001600160a01b0381165f818152601160205260408120805460ff1916600190811790915560128054918201815582527fbb8a6a4669ba250d26cd7a459eca9d215f8307e33aebe50379bc5a3617ec34440180546001600160a01b0319169092179091556013805491610bee83613900565b91905055505b50600101610b15565b507f69c5e27e014234f32cb7cbab598a9411adc7ac2a008b76f52f7d9698d642ec8b82826001604051610c329392919061396d565b60405180910390a15050565b601f545f9060ff1615610c635760405162461bcd60e51b8152600401610983906139b5565b610c6e848484612c0c565b90505b9392505050565b610c80612932565b6001600160a01b038216610ca75760405163d92e233d60e01b815260040160405180910390fd5b805f03610cc75760405163162908e360e11b815260040160405180910390fd5b6001600160a01b0382165f9081526015602052604090206006015460ff1615610d0557816040516370ee6c1960e01b8152600401610983919061362e565b5f612710610d156103e8846139c5565b610d1f91906139f0565b90505f610d2c8284613a03565b90505f612710610d3e6101f4866139c5565b610d4891906139f0565b90506040518061010001604052808581526020018481526020018381526020018281526020015f81526020015f81526020016001151581526020015f151581525060155f876001600160a01b03166001600160a01b031681526020019081526020015f205f820151815f01556020820151816001015560408201518160020155606082015181600301556080820151816004015560a0820151816005015560c0820151816006015f6101000a81548160ff02191690831515021790555060e08201518160060160016101000a81548160ff021916908315150217905550905050601685908060018154018082558091505060019003905f5260205f20015f9091909190916101000a8154816001600160a01b0302191690836001600160a01b031602179055506040518061014001604052808381526020015f81526020015f81526020014281526020015f8152602001622820726012610ea891906139c5565b81526101f46020808301919091526103e86040808401919091526001606080850182905260809485018290526001600160a01b038b165f9081526014855283812087518155948701519285019290925591850151600284015590840151600383015591830151600482015560a0830151600582015560c0830151600682015560e0830151600782015561010080840151600890920180546101209095015161ffff1990951692151561ff00191692909217931515029290921790915560178054849290610f7690849061389f565b92505081905550846001600160a01b03167f38d6b5419d86e8103da34036212d819f19752d12b82c46aa7154ed6b66564432858585604051610fba93929190613791565b60405180910390a26001600160a01b0385167fede26f780b56e1424f41e605cc40272c8ab2d4b5b823283b83c8a54c9bc46737835f610ffd6228207260126139c5565b600160405161100f9493929190613a2d565b60405180910390a25050505050565b611026612932565b6001600160a01b03821661104c5760405162461bcd60e51b815260040161098390613a8b565b6001600160a01b03919091165f908152601e60205260409020805460ff1916911515919091179055565b5f80805b6016548110156110d25760155f6016838154811061109a5761109a6138ec565b5f9182526020808320909101546001600160a01b031683528201929092526040019020546110c8908361389f565b915060010161107a565b50919050565b5f33610aff8185856110ea8383612523565b6110f4919061389f565b612b59565b6001600160a01b0381165f9081526014602052604081206008810154829182918291829182918291829190610100900460ff1661114e575f805f805f805f809850985098509850985098509850985050611289565b805460018201546002830154919a509850965061116b888a613a03565b95505f81600401548260030154611182919061389f565b90505f82600501548360040154846003015461119e919061389f565b6111a8919061389f565b9050814210156111d5578196505f95506228207283600501546111cb91906139f0565b94505f9350611285565b80421061120d576228207283600501546111ef91906139f0565b95505f94505f96505f6112018d612c24565b50151594506112859050565b5f6112188342613a03565b905061122762282072826139f0565b96508662282072856005015461123d91906139f0565b6112479190613a03565b95505f6228207261125989600161389f565b61126391906139c5565b61126d908561389f565b90508098505f61127c8f612c24565b50151596505050505b5050505b919395975091939597565b61129c612932565b601f5460ff16156112bf5760405162461bcd60e51b815260040161098390613acd565b601f805460ff19166001179055565b6112d6612932565b6001600160a01b0381165f9081526011602052604090205460ff1661131057806040516345fa1e9160e11b8152600401610983919061362e565b6001600160a01b0381165f908152601160205260408120805460ff191690555b60125481101561142457816001600160a01b03166011600101828154811061135a5761135a6138ec565b5f918252602090912001546001600160a01b03160361141c576012805461138390600190613a03565b81548110611393576113936138ec565b5f91825260209091200154601280546001600160a01b0390921691839081106113be576113be6138ec565b5f91825260209091200180546001600160a01b0319166001600160a01b039290921691909117905560128054806113f7576113f7613add565b5f8281526020902081015f1990810180546001600160a01b0319169055019055611424565b600101611330565b5060138054905f61143483613af1565b9190505550806001600160a01b03165f80516020613ecd8339815191525f60405161145f9190613200565b60405180910390a250565b611472612932565b6001600160a01b0387166114995760405163d92e233d60e01b815260040160405180910390fd5b855f036114b95760405163162908e360e11b815260040160405180910390fd5b6001600160a01b0387165f90815260146020526040902060080154610100900460ff16156114fc578660405163073727ab60e41b8152600401610983919061362e565b6040518061014001604052808781526020015f81526020015f8152602001428152602001620151808761152f91906139c5565b815260200161154162282072876139c5565b815260208082018690526040808301869052841515606080850191909152600160809485018190526001600160a01b038d165f90815260148552838120875181559487015191850191909155918501516002840155840151600383015591830151600482015560a0830151600582015560c0830151600682015560e0830151600782015561010080840151600890920180546101209095015161ffff1990951692151561ff0019169290921793151502929092179091556017805488929061160a90849061389f565b90915550506001600160a01b0387167fede26f780b56e1424f41e605cc40272c8ab2d4b5b823283b83c8a54c9bc467378761164862015180896139c5565b61165562282072896139c5565b856040516116669493929190613b06565b60405180910390a250505050505050565b60605f60116002015467ffffffffffffffff81111561169857611698613b21565b6040519080825280602002602001820160405280156116c1578160200160208202803683370190505b5090505f805b60125481101561178557601280546011915f91849081106116ea576116ea6138ec565b5f9182526020808320909101546001600160a01b0316835282019290925260400190205460ff161561177d57601280548290811061172a5761172a6138ec565b905f5260205f20015f9054906101000a90046001600160a01b0316838381518110611757576117576138ec565b6001600160a01b03909216602092830291909101909101528161177981613900565b9250505b6001016116c7565b509092915050565b611795612932565b61179e5f612db4565b565b5f806117aa612932565b6001600160a01b0383165f9081526015602090815260408083206014909252909120600682015460ff166117f35784604051630ec2858d60e11b8152600401610983919061362e565b6008810154610100900460ff1661181f5784604051630e9887af60e11b8152600401610983919061362e565b5f8061182a87612e05565b91509150815f0361185057866040516316a768e160e01b8152600401610983919061362e565b81836001015f828254611863919061389f565b9250508190555080836002015f82825461187d919061389f565b9250508190555081846004015f828254611897919061389f565b9250508190555080846005015f8282546118b1919061389f565b909155509094508490506118c58183613a03565b95506118e56118dc6005546001600160a01b031690565b61dead8761295c565b6119016118fa6005546001600160a01b031690565b888861295c565b8160185f828254611912919061389f565b925050819055508460195f82825461192a919061389f565b9250508190555084601b5f828254611942919061389f565b92505081905550866001600160a01b03167f769f8e7896a369401a8daf9d286c73d8144c26a3d52e53055dc9d6dc8d0ce27a8787876004015460405161198a93929190613791565b60405180910390a2866001600160a01b03167f2591e8f6c833e03a3372a1af79900ebe7c17f658a7747adbc8d603ebe05fee91866019546040516119cf929190613561565b60405180910390a250505050915091565b6119e8612932565b828114611a0857604051632f0bc9ef60e11b815260040160405180910390fd5b5f5b83811015611cc5575f858583818110611a2557611a256138ec565b9050602002016020810190611a3a91906131c5565b90505f848484818110611a4f57611a4f6138ec565b9050602002016020810190611a649190613b35565b90506001600160a01b038216611a7b575050611cbd565b6001600160a01b0382165f9081526011602052604090205460ff16818015611aa1575080155b15611b51576001600160a01b0383165f818152601160205260408120805460ff1916600190811790915560128054918201815582527fbb8a6a4669ba250d26cd7a459eca9d215f8307e33aebe50379bc5a3617ec34440180546001600160a01b0319169092179091556013805491611b1883613900565b9190505550826001600160a01b03165f80516020613ecd8339815191526001604051611b449190613200565b60405180910390a2611cb9565b81158015611b5c5750805b15611cb9576001600160a01b0383165f908152601160205260408120805460ff191690555b601254811015611c7557836001600160a01b031660116001018281548110611bab57611bab6138ec565b5f918252602090912001546001600160a01b031603611c6d5760128054611bd490600190613a03565b81548110611be457611be46138ec565b5f91825260209091200154601280546001600160a01b039092169183908110611c0f57611c0f6138ec565b5f91825260209091200180546001600160a01b0319166001600160a01b03929092169190911790556012805480611c4857611c48613add565b5f8281526020902081015f1990810180546001600160a01b0319169055019055611c75565b600101611b81565b5060138054905f611c8583613af1565b9190505550826001600160a01b03165f80516020613ecd8339815191525f604051611cb09190613200565b60405180910390a25b5050505b600101611a0a565b506013546040517f0b449a04e684d10d7715e950e5e566d8f72deb898a8e6632e5ffa06ece8eac7e91611cf7916131ea565b60405180910390a150505050565b611d0d612932565b601d54600160a01b900460ff1615611d375760405162461bcd60e51b815260040161098390613b84565b601d805460ff60a01b1916600160a01b179055565b611d906040518061010001604052805f81526020015f81526020015f81526020015f81526020015f81526020015f81526020015f151581526020015f151581525090565b506001600160a01b03165f9081526015602090815260409182902082516101008082018552825482526001830154938201939093526002820154938101939093526003810154606084015260048101546080840152600581015460a08401526006015460ff808216151560c085015291900416151560e082015290565b60606016805480602002602001604051908101604052809291908181526020018280548015610ae857602002820191905f5260205f20905b81546001600160a01b03168152600190910190602001808311611e45575050505050905090565b606060048054610a71906138c6565b5f3381611e888286612523565b905083811015611eaa5760405162461bcd60e51b815260040161098390613bd6565b611eb78286868403612b59565b506001949350505050565b601f545f9060ff1615611ee75760405162461bcd60e51b8152600401610983906139b5565b610c718383612f30565b5f80611efc83612c24565b91509150915091565b611f0d612932565b601f5460ff16611f2f5760405162461bcd60e51b815260040161098390613c0e565b601f805460ff19169055565b5f805f80611f4885612c24565b94509150839050611f598183613a03565b92505050915091565b6001600160a01b0381165f9081526014602052604081206008810154829190610100900460ff16611fa85783604051630e9887af60e11b8152600401610983919061362e565b8060030154421015611fcf578360405163735b29fb60e11b8152600401610983919061362e565b80600401548160030154611fe3919061389f565b421015612005578360405163251bfe9f60e11b8152600401610983919061362e565b5f8061201086612c24565b91509150815f0361203657856040516316a768e160e01b8152600401610983919061362e565b81836001015f828254612049919061389f565b9250508190555080836002015f828254612063919061389f565b909155509093508390506120778183613a03565b945061209761208e6005546001600160a01b031690565b61dead8661295c565b6120b36120ac6005546001600160a01b031690565b878761295c565b8160185f8282546120c4919061389f565b925050819055508360195f8282546120dc919061389f565b9250508190555083601b5f8282546120f4919061389f565b92505081905550856001600160a01b03167f8b81fe67377346f7a0a4a369e94f00c5ae54efa1ff15df40b4d54554e164525a8686866001015460405161213c93929190613791565b60405180910390a2856001600160a01b03167f2591e8f6c833e03a3372a1af79900ebe7c17f658a7747adbc8d603ebe05fee9185601954604051612181929190613561565b60405180910390a2505050915091565b5f8061219b612932565b6001600160a01b0383165f9081526014602052604090206008810154610100900460ff166121de5783604051630e9887af60e11b8152600401610983919061362e565b600881015460ff1615611fa857604051632aa519b160e21b815260040160405180910390fd5b61220c612932565b6001600160a01b0381166122335760405163d92e233d60e01b815260040160405180910390fd5b6001600160a01b0381165f9081526011602052604090205460ff161561226e5780604051630925351760e21b8152600401610983919061362e565b6001600160a01b0381165f818152601160205260408120805460ff1916600190811790915560128054918201815582527fbb8a6a4669ba250d26cd7a459eca9d215f8307e33aebe50379bc5a3617ec34440180546001600160a01b03191690921790915560138054916122e083613900565b9190505550806001600160a01b03165f80516020613ecd833981519152600160405161145f9190613200565b612314612932565b6001600160a01b03831661233b5760405163d92e233d60e01b815260040160405180910390fd5b815f0361235b5760405163162908e360e11b815260040160405180910390fd5b6001600160a01b0383165f90815260146020526040902060080154610100900460ff161561239e578260405163073727ab60e41b8152600401610983919061362e565b6040518061014001604052808381526020015f81526020015f815260200142815260200162015180836123d191906139c5565b81526020016123e46228207260216139c5565b815261012c6020808301919091526103e86040808401919091525f6060808501829052600160809586018190526001600160a01b038a1683526014855283832087518155948701519085015591850151600284015590840151600383015591830151600482015560a0830151600582015560c0830151600682015560e0830151600782015561010080840151600890920180546101209095015161ffff1990951692151561ff001916929092179315150292909217909155601780548492906124ae90849061389f565b90915550506001600160a01b0383167fede26f780b56e1424f41e605cc40272c8ab2d4b5b823283b83c8a54c9bc46737836124ec62015180856139c5565b6124fa6228207260216139c5565b5f60405161250b9493929190613b06565b60405180910390a2505050565b5f80611efc83612e05565b6001600160a01b039182165f90815260016020908152604080832093909416825291909152205490565b6001600160a01b0381165f9081526015602052604081206006810154829182918291829182919060ff16612593575f805f805f8096509650965096509650965050612600565b80546006820154909750610100900460ff166125af575f6125b5565b80600101545b95508581600401546125c79190613a03565b945080600501549350838582600201546125e19190613a03565b6125eb9190613a03565b60069091015490925060ff6101009091041690505b91939550919395565b612611612932565b6013546040517f0b449a04e684d10d7715e950e5e566d8f72deb898a8e6632e5ffa06ece8eac7e91612642916131ea565b60405180910390a1565b612654612932565b6001600160a01b03811661267a5760405162461bcd60e51b815260040161098390613c5f565b61268381612db4565b50565b61268e612932565b5f5b81811015612816575f8383838181106126ab576126ab6138ec565b90506020020160208101906126c091906131c5565b6001600160a01b0381165f9081526011602052604090205490915060ff161561280d576001600160a01b0381165f908152601160205260408120805460ff191690555b6012548110156127f757816001600160a01b03166011600101828154811061272d5761272d6138ec565b5f918252602090912001546001600160a01b0316036127ef576012805461275690600190613a03565b81548110612766576127666138ec565b5f91825260209091200154601280546001600160a01b039092169183908110612791576127916138ec565b5f91825260209091200180546001600160a01b0319166001600160a01b039290921691909117905560128054806127ca576127ca613add565b5f8281526020902081015f1990810180546001600160a01b03191690550190556127f7565b600101612703565b5060138054905f61280783613af1565b91905055505b50600101612690565b507f69c5e27e014234f32cb7cbab598a9411adc7ac2a008b76f52f7d9698d642ec8b82825f604051610c329392919061396d565b61289a6040518061014001604052805f81526020015f81526020015f81526020015f81526020015f81526020015f81526020015f81526020015f81526020015f151581526020015f151581525090565b506001600160a01b03165f90815260146020908152604091829020825161014081018452815481526001820154928101929092526002810154928201929092526003820154606082015260048201546080820152600582015460a0820152600682015460c0820152600782015460e082015260089091015460ff80821615156101008085019190915290910416151561012082015290565b6005546001600160a01b0316331461179e5760405162461bcd60e51b815260040161098390613c9f565b612964612f3d565b6001600160a01b038316158061298157506001600160a01b038216155b1561299f5760405163d92e233d60e01b815260040160405180910390fd5b805f036129bf5760405163162908e360e11b815260040160405180910390fd5b6001600160a01b0383165f9081526014602052604090206008810154610100900460ff1615612a5a576001600160a01b0384165f90815260208190526040812054600183015483549192910390818311612a19575f612a23565b612a238284613a03565b9050612a3081600161389f565b851115612a5657868582604051633f0c4e2d60e01b815260040161098393929190613caf565b5050505b6001600160a01b038481165f9081526011602052604080822054928616825281205460ff92831692169082158015612a90575081155b9050808015612a9e57505f85115b15612b3b575f612710612ab26064886139c5565b612abc91906139f0565b90505f612ac98288613a03565b90508115612b2957612adb8983612f66565b876001600160a01b0316896001600160a01b03167ffdd4c1e98fa90aa71afea5bda79407e095a6c3a6cf4b90aa9ad2fef77d75fad18985604051612b20929190613561565b60405180910390a35b612b34898983613065565b5050612b46565b612b46878787613065565b50505050612b546001600655565b505050565b6001600160a01b038316612b7f5760405162461bcd60e51b815260040161098390613cfc565b6001600160a01b038216612ba55760405162461bcd60e51b815260040161098390613d49565b6001600160a01b038084165f8181526001602090815260408083209487168084529490915290819020849055517f8c5be1e5ebec7d5bd14f71427d1e84f3dd0314c0f7b2291e5b200ac8c7c3b92590612bff9085906131ea565b60405180910390a3505050565b5f33612c19858285613155565b611eb785858561295c565b6001600160a01b0381165f9081526014602052604081206008810154829190610100900460ff16612c5a57505f93849350915050565b8060030154421015612c7157505f93849350915050565b80600401548160030154612c85919061389f565b421015612c9757505f93849350915050565b5f81600401548260030154612cac919061389f565b612cb69042613a03565b90505f612cc662282072836139f0565b90505f622820728460050154612cdc91906139f0565b905080821115612cea578091505b60088401545f9060ff1615612d2b57612710838660060154875f0154612d1091906139c5565b612d1a91906139c5565b612d2491906139f0565b9050612d57565b6127108361012c875f0154612d4091906139c5565b612d4a91906139c5565b612d5491906139f0565b90505b8454811115612d64575083545b84600101548111612d7e57505f9788975095505050505050565b6001850154612d8d9082613a03565b9650612710612d9e6103e8896139c5565b612da891906139f0565b95505050505050915091565b600580546001600160a01b038381166001600160a01b0319831681179093556040519116919082907f8be0079c531659141344cd1fd0a4f28419497f9722a3daafe3b4186f6b6457e0905f90a35050565b6001600160a01b0381165f9081526015602090815260408083206014909252822060068201548392919060ff161580612e4857506008810154610100900460ff16155b15612e5957505f9485945092505050565b80600401548160030154612e6d919061389f565b421015612e8057505f9485945092505050565b5f816003015442612e919190613a03565b90505f612ea162282072836139f0565b905082600501548210612ec457622820728360050154612ec191906139f0565b90505b5f612710828560060154865f0154612edc91906139c5565b612ee691906139c5565b612ef091906139f0565b905083600101548111612f0c57505f9788975095505050505050565b6001840154612f1b9082613a03565b9650612710846007015488612d9e91906139c5565b5f33610aff81858561295c565b600260065403612f5f5760405162461bcd60e51b815260040161098390613d8b565b6002600655565b5f612710612f76611388846139c5565b612f8091906139f0565b90505f612710612f926109c4856139c5565b612f9c91906139f0565b90505f81612faa8486613a03565b612fb49190613a03565b601c54909150612fcf9086906001600160a01b031685613065565b601d54612fe79086906001600160a01b031684613065565b612ff48561dead83613065565b82601a5f828254613005919061389f565b9250508190555080601b5f82825461301d919061389f565b90915550506040517fb7ba5f299d23ea3f21efcb2b2f5e209a9405c1ca1bb1c76dce1e0c39929c0fd99061305690859085908590613791565b60405180910390a15050505050565b6001600160a01b03831661308b5760405162461bcd60e51b815260040161098390613ddb565b6001600160a01b0382166130b15760405162461bcd60e51b815260040161098390613e29565b6001600160a01b0383165f90815260208190526040902054818110156130e95760405162461bcd60e51b815260040161098390613e7a565b6001600160a01b038085165f8181526020819052604080822086860390559286168082529083902080548601905591517fddf252ad1be2c89b69c2b068fc378daa952ba7f163c4a11628f55a4df523b3ef906131469086906131ea565b60405180910390a35b50505050565b5f6131608484612523565b90505f19811461314f578181101561318a5760405162461bcd60e51b815260040161098390613ebc565b61314f8484848403612b59565b5f6001600160a01b038216610b05565b6131b081613197565b8114612683575f80fd5b8035610b05816131a7565b5f602082840312156131d8576131d85f80fd5b610c7183836131ba565b805b82525050565b60208101610b0582846131e2565b8015156131e4565b60208101610b0582846131f8565b5f5b83811015613228578181015183820152602001613210565b50505f910152565b5f613239825190565b80845260208401935061325081856020860161320e565b601f01601f19169290920192915050565b60208082528101610c718184613230565b806131b0565b8035610b0581613272565b5f8060408385031215613297576132975f80fd5b6132a184846131ba565b91506132b08460208501613278565b90509250929050565b5f8083601f8401126132cc576132cc5f80fd5b50813567ffffffffffffffff8111156132e6576132e65f80fd5b602083019150836020820283011115613300576133005f80fd5b9250929050565b5f806020838503121561331b5761331b5f80fd5b823567ffffffffffffffff811115613334576133345f80fd5b613340858286016132b9565b92509250509250929050565b5f805f60608486031215613361576133615f80fd5b61336b85856131ba565b925061337a85602086016131ba565b91506133898560408601613278565b90509250925092565b8015156131b0565b8035610b0581613392565b5f80604083850312156133b9576133b95f80fd5b6133c384846131ba565b91506132b0846020850161339a565b60ff81166131e4565b60208101610b0582846133d2565b61010081016133f8828b6131e2565b613405602083018a6131e2565b61341260408301896131e2565b61341f60608301886131e2565b61342c60808301876131e2565b61343960a08301866131e2565b61344660c08301856131e2565b61345360e08301846131f8565b9998505050505050505050565b5f805f805f805f60e0888a031215613479576134795f80fd5b61348389896131ba565b96506134928960208a01613278565b95506134a18960408a01613278565b94506134b08960608a01613278565b93506134bf8960808a01613278565b92506134ce8960a08a01613278565b91506134dd8960c08a0161339a565b905092959891949750929550565b6131e481613197565b6134fe82826134eb565b5060200190565b60200190565b5f613514825190565b80845260209384019383015f5b8281101561354657815161353587826134f4565b965050602082019150600101613521565b5093949350505050565b60208082528101610c71818461350b565b6040810161356f82856131e2565b610c7160208301846131e2565b5f805f8060408587031215613592576135925f80fd5b843567ffffffffffffffff8111156135ab576135ab5f80fd5b6135b7878288016132b9565b9450945050602085013567ffffffffffffffff8111156135d8576135d85f80fd5b6135e4878288016132b9565b95989497509550505050565b608081016135fe82876131e2565b61360b60208301866131e2565b61361860408301856131e2565b61362560608301846131e2565b95945050505050565b60208101610b0582846134eb565b805161364883826131e2565b50602081015161365b60208401826131e2565b50604081015161366e60408401826131e2565b50606081015161368160608401826131e2565b50608081015161369460808401826131e2565b5060a08101516136a760a08401826131e2565b5060c08101516136ba60c08401826131f8565b5060e0810151612b5460e08401826131f8565b6101008101610b05828461363c565b5f805f606084860312156136f1576136f15f80fd5b6136fb85856131ba565b925061337a8560208601613278565b5f806040838503121561371e5761371e5f80fd5b61372884846131ba565b91506132b084602085016131ba565b60c0810161374582896131e2565b61375260208301886131e2565b61375f60408301876131e2565b61376c60608301866131e2565b61377960808301856131e2565b61378660a08301846131f8565b979650505050505050565b6060810161379f82866131e2565b6137ac60208301856131e2565b6137b960408301846131e2565b949350505050565b80516137cd83826131e2565b5060208101516137e060208401826131e2565b5060408101516137f360408401826131e2565b50606081015161380660608401826131e2565b50608081015161381960808401826131e2565b5060a081015161382c60a08401826131e2565b5060c081015161383f60c08401826131e2565b5060e081015161385260e08401826131e2565b506101008101516138676101008401826131f8565b50610120810151612b546101208401826131f8565b6101408101610b0582846137c1565b634e487b7160e01b5f52601160045260245ffd5b80820180821115610b0557610b0561388b565b634e487b7160e01b5f52602260045260245ffd5b6002810460018216806138da57607f821691505b6020821081036110d2576110d26138b2565b634e487b7160e01b5f52603260045260245ffd5b5f600182016139115761391161388b565b5060010190565b505f610b0560208301836131ba565b8183526020830192505f81805f5b85811015613962576139478284613918565b61395188826134f4565b975050602082019150600101613935565b509495945050505050565b6040808252810161397f818587613927565b90506137b960208301846131f8565b60128152602081017110dbdb9d1c9858dd081a5cc81c185d5cd95960721b81529050613505565b60208082528101610b058161398e565b8181028115828204841417610b0557610b0561388b565b634e487b7160e01b5f52601260045260245ffd5b5f826139fe576139fe6139dc565b500490565b81810381811115610b0557610b0561388b565b5f610b05613a218381565b90565b6131e481613a16565b60808101613a3b82876131e2565b613a486020830186613a24565b613a5560408301856131e2565b61362560608301846131f8565b601481526020810173496e76616c69642070616972206164647265737360601b81529050613505565b60208082528101610b0581613a62565b60178152602081017f436f6e747261637420616c72656164792070617573656400000000000000000081529050613505565b60208082528101610b0581613a9b565b634e487b7160e01b5f52603160045260245ffd5b5f81613aff57613aff61388b565b505f190190565b60808101613b1482876131e2565b613a4860208301866131e2565b634e487b7160e01b5f52604160045260245ffd5b5f60208284031215613b4857613b485f80fd5b610c71838361339a565b60178152602081017f54726164696e6720616c726561647920656e61626c656400000000000000000081529050613505565b60208082528101610b0581613b52565b60258152602081017f45524332303a2064656372656173656420616c6c6f77616e63652062656c6f77815264207a65726f60d81b602082015290505b60400190565b60208082528101610b0581613b94565b60138152602081017210dbdb9d1c9858dd081b9bdd081c185d5cd959606a1b81529050613505565b60208082528101610b0581613be6565b60268152602081017f4f776e61626c653a206e6577206f776e657220697320746865207a65726f206181526564647265737360d01b60208201529050613bd0565b60208082528101610b0581613c1e565b60208082527f4f776e61626c653a2063616c6c6572206973206e6f7420746865206f776e65729101908152613505565b60208082528101610b0581613c6f565b6060810161379f82866134eb565b60248152602081017f45524332303a20617070726f76652066726f6d20746865207a65726f206164648152637265737360e01b60208201529050613bd0565b60208082528101610b0581613cbd565b60228152602081017f45524332303a20617070726f766520746f20746865207a65726f206164647265815261737360f01b60208201529050613bd0565b60208082528101610b0581613d0c565b601f8152602081017f5265656e7472616e637947756172643a207265656e7472616e742063616c6c0081529050613505565b60208082528101610b0581613d59565b60258152602081017f45524332303a207472616e736665722066726f6d20746865207a65726f206164815264647265737360d81b60208201529050613bd0565b60208082528101610b0581613d9b565b60238152602081017f45524332303a207472616e7366657220746f20746865207a65726f206164647281526265737360e81b60208201529050613bd0565b60208082528101610b0581613deb565b60268152602081017f45524332303a207472616e7366657220616d6f756e7420657863656564732062815265616c616e636560d01b60208201529050613bd0565b60208082528101610b0581613e39565b601d8152602081017f45524332303a20696e73756666696369656e7420616c6c6f77616e636500000081529050613505565b60208082528101610b0581613e8a56fe9f1eaee9ad9cb68284f0dc523aa42c465ed33b53f8da7fc7294ccea47358bbdfa26469706673582212201661e9c3b8bdc054f743e749e82aed656fb181045750c05fa86dbb498983d63664736f6c63430008180033bb8a6a4669ba250d26cd7a459eca9d215f8307e33aebe50379bc5a3617ec3444",
  "linkReferences": {
    "contracts/libraries/WalletManager.sol": {
      "WalletManager": [
        {
          "length": 20,
          "start": 293
        }
      ]
    }
  },
  "deployedLinkReferences": {}
}